:020000040800F2
:100000008807002079020008FD2000085F1F000813
:10001000F92000087B0300084F23000800000000BF
:100020000000000000000000000000006D2100083A
:100030007F03000800000000012100086F21000874
:10004000930200089302000893020008930200083C
:10005000930200089302000893020008930200082C
:10006000930200089302000893020008930200081C
:10007000930200089302000893020008930200080C
:100080009302000800000000930200089302000899
:1000900093020008890300089302000893020008F5
:1000A000F52100089302000893020008930200085B
:1000B00093020008930200089302000893020008CC
:1000C00093020008930200089302000893020008BC
:1000D00093020008930200089302000893020008AC
:1000E000930200089302000893020008930200089C
:1000F0009302000893020008930200080000000029
:1001000000000000930200080000000093020008B5
:100110009302000800000000930200089302000808
:10012000930200089302000893020008930200085B
:100130009302000800000000000000009302000885
:100140009302000893020008000000000000000075
:10015000000000000000000000000000000000009F
:1001600000000000000000000000000093020008F2
:1001700093020008000000000000000000000000E2
:1001800000000000930200080000000000000000D2
:10019000000000000000000000000000000000005F
:1001A0000000000000000000930200089302000815
:1001B0009302000893020008930200080000000068
:1001C0000000000093020008000000000000000092
:1001D000930200089302000800F002F800F03CF8D7
:1001E0000AA090E8000C82448344AAF10107DA4592
:1001F00001D100F031F8AFF2090EBAE80F0013F0A8
:10020000010F18BFFB1A43F001031847C02100007B
:10021000E0210000103A24BF78C878C1FAD852070C
:1002200024BF30C830C144BF04680C607047000070
:100230000023002400250026103A28BF78C1FBD8EF
:10024000520728BF30C148BF0B6070471FB502F08E
:10025000ABF81FBD10B510BD00F058F81146FFF700
:10026000F5FF02F093F800F076F803B4FFF7F2FF21
:1002700003BC00F07BF800000948804709480047AC
:10028000FEE7FEE7FEE7FEE7FEE7FEE7FEE7FEE746
:10029000FEE7FEE704480549054A064B70470000A3
:1002A000E1210008D901000888010020880700200A
:1002B00088030020880300204FF0000200B5134699
:1002C00094469646203922BFA0E80C50A0E80C5076
:1002D000B1F12001BFF4F7AF090728BFA0E80C5027
:1002E00048BF0CC05DF804EB890028BF40F8042B20
:1002F00008BF704748BF20F8022B11F0804F18BF8D
:1003000000F8012B7047704770477047754600F042
:1003100029F8AE4605006946534620F00700854699
:1003200018B020B5FFF7B6FFBDE820404FF000063B
:100330004FF000074FF000084FF0000B21F00701CD
:10034000AC46ACE8C009ACE8C009ACE8C009ACE810
:10035000C0098D4670470446AFF300802046FFF782
:1003600084FF000000487047240100200149182044
:10037000ABBEFEE726000200704700BFFEE77047F5
:1003800072B600BFFEE7000010B5024800F03DF86D
:1003900010BD00001000002010B519490164036869
:1003A000D3F8803023F4F814838E44EA03430468BE
:1003B000C4F8803001F1700343640368D3F88030DF
:1003C00023F0706490F8383044EA03630468C4F89A
:1003D000803001F1B003836401F5C473C36401F597
:1003E0001873036501F51E7343650A4602E0002396
:1003F0001360121D01F554739A42F8D310BD00002A
:1004000000A400407047704770472DE9FC5F044628
:100410002068006D00F4E0572068406D07402068B8
:10042000006D00F007082068406D00EA08082068A9
:10043000006D00F038092068406D00EA0909206865
:10044000006D00F4710A2068406D00EA0A0A206815
:10045000006D00F4602B2068406D00EA0B0B2068F3
:10046000456D2068066DC6F3801040B1C5F380105D
:1004700028B14020216808652046FFF7C5FFC6F374
:100480000020A0B1C5F3002088B12068D0F8D800C2
:1004900000902068D0F8E0000099084000904FF4E8
:1004A0008070216808652046009900F0E3F92FB1BB
:1004B000206807653946204600F0DEF9B8F1000FE4
:1004C00006D02068C0F850804146204600F0CEF9A2
:1004D000B9F1000F06D02068C0F850904946204678
:1004E00000F0C5F9C6F3402048B1C5F3402030B153
:1004F0004FF4007021680865204600F0BEF9C6F38D
:10050000C01098B1C5F3C01080B12068D0F8D400F5
:1005100001902068D0F8DC0001990840019080200B
:10052000216808652046019900F0A5F9C6F340301E
:1005300048B1C5F3403030B14FF400502168086530
:10054000204600F096F9C6F3C03048B1C5F3C0307C
:1005500030B14FF4004021680865204600F088F96A
:10056000C6F3803050B1C5F3803038B14FF48040CD
:1005700021680865206E40F080002066BBF1000F06
:1005800006D02068C0F850B059462046FFF73BFF20
:10059000BAF1000F06D02068C0F850A0206E40EAE3
:1005A0000A002066206E10B12046FFF72BFFBDE841
:1005B000FC9F000070B504460CB9012070BD814954
:1005C0002068884200D100BFA068B0F5407F00D10C
:1005D00000BF94F85C0028B9002084F85D00204634
:1005E00000F0F4F82068806920F01000216888612C
:1005F00000F02AFA05460DE000F026FA401B0A2812
:1006000008D9206E40F001002066032084F85C00C9
:100610000120D3E72068806900F008000828EBD0AB
:100620002068806940F001002168886100F00CFAC0
:1006300005460DE000F008FA401B0A2808D9206E94
:1006400040F001002066032084F85C000120B5E73B
:100650002068806900F001000028EBD020688069E4
:1006600040F002002168886156492068884202D122
:10067000554960680860207C012806D1206880699F
:1006800020F040002168886105E02068806940F022
:10069000400021688861607C012806D1206880695B
:1006A00040F480402168886105E02068806920F47A
:1006B000804021688861A07C012806D1206880697B
:1006C00020F480502168886105E02068806940F44A
:1006D0008050216888612068806920F44070A1689A
:1006E0000843216888612068806920F0A40021689F
:1006F00088612068006920F0100021680861E068C6
:10070000012806D12068806940F0040021688861D2
:1007100020E0E068F0B1E068022815D02068806928
:1007200040F08000216888612068006940F0100076
:1007300021680861E06803280CD12068806940F0D6
:1007400020002168886105E02068806940F0200071
:1007500021688861207E401E4106E069401E41EA12
:100760000020216A491E0843A18A491E40EA01402F
:100770002168C861A068B0F5407F0FD1A06A401E13
:10078000E16A491E40EA0121206B401E41EA001146
:10079000A08C401E41EA00402168C8602068D0F863
:1007A000C000E16B08432168C1F8C0002046FFF794
:1007B000F3FD0020A0652066012084F85C00002085
:1007C000FCE60000006400400065004010B598B0F1
:1007D0000446142113A8FFF76FFD442102A8FFF778
:1007E0006BFD2049206888423AD180140290400372
:1007F0000E9002A800F094FA08B1FFF7C1FD00BF07
:100800001948806D40F00070174988650846806D72
:1008100000F00070019000BF00BF00BF0846C06C30
:1008200040F00100C8640846C06C00F0010001906F
:1008300000BF00BF4FF4C05013900220149000205E
:10084000159016900920179013A9C00600F016F80D
:1008500000221146152000F07BF9152000F064F904
:1008600018B010BD0064004000100240704770478F
:1008700070477047704770477047704778B50246B9
:100880000B460021CAE001268E401D6805EA0604D9
:10089000002C73D01D7905F00305012D04D01D79BE
:1008A00005F00305022D13D190684E000325B540D5
:1008B000A8434E00DD68B54028439060506801258C
:1008C0008D40A8431D79C5F300158D402843506025
:1008D0001D7905F00305032D09D0D0684E000325CE
:1008E000B540A8434E009D68B5402843D0601D79AF
:1008F00005F00305022D13D1CE0802F1200555F8AD
:1009000026004D07EE0E0F25B540A8434E07F60E04
:100910001D69B5402843CE0802F1200545F82600A0
:1009200010684E000325B540A8431D7905F0030566
:100930004E00B540284310605D6805F44035002D39
:100940006BD000BF384D2D6E45F00105364E356633
:1009500035462D6E05F00105009500BF00BF4FEA3A
:10096000B6358E0855F826008D072E0F0F25B54099
:10097000A843B2F1904F02D100251AE04DE02B4D73
:10098000AA4201D1012514E0294DAA4201D1022534
:100990000FE0284DAA4201D103250AE0264DAA42C4
:1009A00001D1042505E0254DAA4201D1052500E02D
:1009B00006258E07360FB5402843214D8E0845F891
:1009C0002600204D2868A0435D6805F4801505B118
:1009D00020431C4D28602D1D2868A0435D6805F448
:1009E000001505B12043174D2D1D2860154D2D1FF5
:1009F0002868A0435D6805F4003505B12043114D1A
:100A00002D1F28602D1F2868A0435D6805F48035E0
:100A100005B120430B4D083D2860491C1D68CD40A1
:100A2000002D7FF430AF78BD001002400004004874
:100A300000080048000C004800100048001400485E
:100A400008000140080401400148006870470000A8
:100A50000000002003480068034909680844014970
:100A600008607047000000200800002010B5002436
:100A7000032000F0ABF80F2000F008F808B10124C3
:100A800001E000F02FF8204610BD000070B50446CC
:100A9000002511480068D8B10F4800684FF47A71FA
:100AA000B1FBF0F00D490968B1FBF0F6304600F0FB
:100AB000D1FF58B9102C07D200222146501E00F059
:100AC00047F80748046004E0012502E0012500E042
:100AD0000125284670BD0000080000200C00002001
:100AE0000400002008B500BF0E48006E40F0010071
:100AF0000C4908660846006E00F00100009000BF37
:100B000000BF00BF0846806D40F0805088650846F1
:100B1000806D00F08050009000BF00BF00F0F6F83C
:100B200008BD0000001002400146084600280DDB09
:100B300000BF00BF00F01F0301229A4043099B0041
:100B400003F1E023C3F8002100BF00BF00BF7047DE
:100B50002DE9F05F80460D46164601F0FBFB074687
:100B600039462A46334601F00700C0F1070ABAF1B8
:100B7000040F02D94FF0040A01E0C0F1070AD14680
:100B800000F1040ABAF1070F02D24FF0000A01E0A7
:100B9000A0F1030AD4464FF0010A0AFA09FAAAF1B1
:100BA000010A0AEA020A0AFA0CFA4FF0010B0BFAE0
:100BB0000CFBABF1010B0BEA030B4AEA0B042146D9
:100BC000404601F0CFFBBDE8F09F000000BF00F001
:100BD0000702064B19684FF6FF031940044B0B43FD
:100BE00043EA0221014B196000BF70470CED00E0A1
:100BF0000000FA0502468ABB4148006800F4C06064
:100C0000B0F5806F2BD13E488030006820F48070B2
:100C10003B4BC3F880001846006820F4C06040F4E5
:100C2000007018603748006832235843364BB0FBD9
:100C3000F3F0411C00E0491E3148406900F4806037
:100C4000B0F5806F01D10029F5D12D48406900F43D
:100C50008060B0F5806F51D10320704708E02848CC
:100C60008030006820F48070254BC3F8800045E098
:100C7000B2F5007F3AD12248006800F4C060B0F5B8
:100C8000806F2AD11E488030006840F480701C4B71
:100C9000C3F880001846006820F4C06040F400707B
:100CA00018601848006832235843174BB0FBF3F024
:100CB000411C00E0491E1248406900F48060B0F514
:100CC000806F01D10029F5D10D48406900F48060A2
:100CD000B0F5806F12D10320BFE70948803000686B
:100CE00040F48070064BC3F8800007E004480068B9
:100CF00020F4C06040F48060014B18600020ACE735
:100D0000007000400C00002040420F000348806843
:100D100040F4804001498860704700000070004046
:100D20002DE9F84304460027B846206800F4002067
:100D3000B0F5002F73D1B946D348806D00F08050D4
:100D400078B900BFD048806D40F08050CE498865AA
:100D50000846806D00F08050009000BF00BF4FF04B
:100D60000109CA48006840F48070C8490860FFF76C
:100D70006BFE064606E0FFF767FE801B022801D9DE
:100D8000032705E0C148006800F480700028F2D015
:100D900000BF002F46D1BC489030006800F4407579
:100DA000CDB1206CA84216D0B7489030006820F42E
:100DB0004075B548D0F8900040F48030B249C1F891
:100DC00090000846D0F8900020F48030C1F89000E0
:100DD0000846C0F8905005F00100A0B1FFF734FEBE
:100DE000064608E0FFF730FE801B41F2883188425A
:100DF00001D9032706E0A4489030006800F0020003
:100E00000028EFD000BF5FB99F489030006820F401
:100E10004070216C08439C49C1F8900003E00CE04D
:100E2000B84600E0B846B9F1010F05D19648806D8B
:100E300020F080509449886500BF207800F00100C0
:100E400048B191488830006820F003006168084389
:100E50008D49C1F88800207800F00200022809D1ED
:100E600089488830006820F00C00A1680843864952
:100E7000C1F88800207800F00400042809D18248D5
:100E80008830006820F03000E16808437E49C1F8EE
:100E90008800207800F00800082809D17A488830B6
:100EA000006820F0C000216908437749C1F8880034
:100EB000207800F02000202809D17348883000688D
:100EC00020F44060616908436F49C1F888002078C8
:100ED00000F04000402809D16B488830006820F4B9
:100EE0004050A16908436849C1F88800207800F0A3
:100EF0008000802809D164488830006820F4404090
:100F0000E16908436049C1F88800208800F48070D6
:100F1000B0F5807F09D15C488830006820F440300B
:100F2000216A08435849C1F88800208800F40070FD
:100F3000B0F5007F09D154488830006820F4402083
:100F4000616A08435049C1F88800208800F4806035
:100F5000B0F5806F13D14C488830006820F4401001
:100F6000A16A0843484988310860A06AB0F5801F2B
:100F700005D14548C06840F480104349C8602088C6
:100F800000F40060B0F5006F13D13F48883000686E
:100F900020F44000E16A08433B4988310860E06A78
:100FA000B0F5800F05D13848C06840F4801036494C
:100FB000C860208800F48050B0F5805F13D13248BB
:100FC0008830006820F04070216B08432E4988313A
:100FD0000860206BB0F1807F05D12B48C06840F4D9
:100FE00080102949C860208800F40050B0F5005FE7
:100FF00013D125488830006820F04060616B0843B9
:10100000214988310860606BB0F1006F05D11E483E
:10101000C06840F480101C49C860208800F48040FB
:10102000B0F5804F13D118488830006820F0406038
:10103000A16B0843144988310860A06BB0F1006FC0
:1010400005D11148C06840F480100F49C86020885D
:1010500000F40040B0F5004F13D10B488830006811
:1010600020F04050E16B0843074988310860E06B8D
:10107000B0F1805F05D10448C06840F48030024977
:10108000C8604046BDE8F883001002400070004090
:101090002DE9F04104460D464FF0000814B9012037
:1010A000BDE8F0817D48006800F00F00A8420ED234
:1010B0007A48006820F00F00284378490860084605
:1010C000006800F00F00A84201D00120E8E7207876
:1010D00000F00100002864D06068032823D1704824
:1010E000006800F0007008B90120D9E701F00AF8A3
:1010F00006466C48864237D96948806800F0F0009F
:1011000030B1207800F0020002282DD1A06858BB31
:101110006348806820F0F00040F0800060498860FB
:101120004FF0800820E06068022806D15C48006823
:1011300000F4003040B90120B2E75948006800F4DB
:10114000806008B90120ABE700F0B4F806465548C6
:10115000864209D95248806820F0F00040F08000B3
:101160004F4988604FF080084D48806820F00300A8
:10117000616808434A498860FFF766FC074608E053
:10118000FFF762FCC01B41F28831884201D903207D
:1011900086E74348806800F00C006168B0EB810F7F
:1011A000EED1207800F00200022820D1207800F053
:1011B0000400042805D13A48806840F4E0603849CA
:1011C0008860207800F00800082807D1344880683B
:1011D00020F4605040F4E060314988603048806815
:1011E00020F0F000A16808432D49886008E0B8F1BC
:1011F000800F05D12A48806820F0F00028498860D7
:101200002648006800F00F00A84219D9234800685A
:1012100020F00F00284321490860FFF715FC07461E
:1012200008E0FFF711FCC01B41F28831884201D968
:10123000032035E71948006800F00F00A842F0D1FC
:10124000207800F00400042807D11548806820F4B5
:10125000E060E168084312498860207800F00800E7
:10126000082808D10E48806820F46050216940EABF
:10127000C1000B49886000F01DF809498968C1F375
:101280000311094A515C01F01F01C8400749086079
:1012900007480068FFF7FAFB02E700000020024061
:1012A0000010024000B4C404B22300080C00002067
:1012B0000400002070B5224DAD6805F00C05042D2A
:1012C00001D120483AE01E4DAD6805F00C05082D0F
:1012D00001D11D4832E01A4DAD6805F00C050C2D0A
:1012E0002BD1174DED6805F00304154DED68C5F3DE
:1012F00003156A1C022C0CD0032C09D1124DB5FB2E
:10130000F2F50F4EF668C6F3062605FB06F10AE075
:1013100000BF0C4DB5FBF2F5094EF668C6F3062684
:1013200005FB06F100BF00BF054DED68C5F3416543
:101330006D1C6B00B1FBF3F000E0002070BD0000FD
:10134000001002400024F40000127A002DE9F84356
:10135000044614B90120BDE8F883207800F00100AC
:10136000002865D0FC48806800F00C07FA48C06887
:1013700000F003060C2F01D1032E01D0082F0AD153
:10138000F548006800F40030002851D0606800285B
:101390004ED10120DFE700BF6068B0F5803F06D185
:1013A000ED48006840F48030EB4908601AE060685E
:1013B000B0F5A02F0BD1E848006840F48020E64942
:1013C00008600846006840F4803008600AE0E2489F
:1013D000006820F48030E04908600846006820F486
:1013E0008020086000BF606888B1FFF72DFB0546CC
:1013F00006E0FFF729FB401B642801D90320AAE778
:10140000D548006800F400300028F2D010E0FFF763
:101410001BFB054606E0FFF717FB401B642801D9BC
:10142000032098E7CC48006800F400300028F2D18F
:10143000207800F00200022860D1C748806800F0E0
:101440000C07C548C06800F003060C2F01D1022E1E
:1014500001D0042F18D1C048006800F4806018B192
:10146000E06808B9012076E7BB48406820F0FE40FC
:10147000217C40EA0160B8494860B8480068FFF73D
:1014800005FB18B3012066E7E06800B3B2480068C6
:1014900040F48070B0490860FFF7D6FA054606E0D0
:1014A000FFF7D2FA401B022801D9032053E7AA48CC
:1014B000006800F480600028F2D0A748406820F05F
:1014C000FE40217C40EA0160A349486016E0A24842
:1014D000006820F48070A0490860FFF7B5FA05465F
:1014E00006E0FFF7B1FA401B022801D9032032E7DA
:1014F0009948006800F480600028F2D1207800F05C
:101500000800082836D16069D0B19348943000684B
:1015100040F001009049C1F89400FFF795FA0546A4
:1015200006E0FFF791FA401B022801D9032012E7D9
:1015300089489430006800F002000028F1D019E0DA
:1015400085489430006820F001008349C1F8940078
:10155000FFF77AFA054606E0FFF776FA401B022805
:1015600001D90320F7E67C489430006800F00200BF
:101570000028F1D1207800F00400042872D14FF047
:1015800000087548806D012121EA107078B100BF14
:101590007148806D40F080506F4988650846806DC5
:1015A00000F08050009000BF00BF4FF001086C4871
:1015B000006800F48070B0B96948006840F4807039
:1015C00067490860FFF740FA054606E0FFF73CFA76
:1015D000401B022801D90320BDE66148006800F4E1
:1015E00080700028F2D000BFA068012808D15A48B6
:1015F0009030006840F001005749C1F8900021E0A8
:10160000A06805280FD154489030006840F00400CD
:101610005149C1F890000846D0F8900040F0010010
:10162000C1F890000EE04C489030006820F00100B6
:101630004949C1F890000846D0F8900020F0040015
:10164000C1F8900000BFA068A8B1FFF7FDF90546FA
:1016500009E0FFF7F9F9401B41F28831884202D9CD
:10166000032078E625E03C489030006800F0020056
:101670000028EED013E0FFF7E7F9054608E0FFF792
:10168000E3F9401B41F28831884201D9032062E628
:1016900031489030006800F002000028EFD1B8F126
:1016A000010F05D12C48806D20F080502A498865B3
:1016B00000BF207800F02000202836D1A069D0B1EA
:1016C00025489830006840F001002349C1F898008F
:1016D000FFF7BAF9054606E0FFF7B6F9401B022806
:1016E00001D9032037E61C489830006800F002005A
:1016F0000028F1D019E018489830006820F0010067
:101700001549C1F89800FFF79FF9054606E0FFF775
:101710009BF9401B022801D903201CE60E48983093
:10172000006800F002000028F1D1E069002860D0D4
:101730000948806800F00C000C287AD0E069022883
:1017400058D10548006820F0807003490860FFF711
:101750007BF905460DE00000001002400400002067
:1017600000700040FFF770F9401B022801D90320E8
:10177000F1E54A48006800F000700028F2D1D4E991
:101780000810401E41EA0011A06A41EA0021208EA3
:101790000122C2EB500041EA40513420005DC2EB0F
:1017A000500041EA40612C20005D41EAC0603B49A5
:1017B000C9683B4A114008433849C8600846006878
:1017C00040F0807008600846C06840F08070C860D3
:1017D000FFF73AF9054606E0FFF736F9401B022805
:1017E00001D90320B7E52D48006800F000700028FB
:1017F000F2D051E02948006820F080702749086045
:10180000FFF722F9054606E0FFF71EF9401B022804
:1018100001D903209FE52148006800F000700028EE
:10182000F2D11E48C0681F4908401C49C86033E017
:10183000FFE7E069012800D18DE51848C66806F089
:101840000301206A814225D106F0F001606A401E42
:10185000B1EB001F1ED106F4FE41A06AB1EB002FD0
:1018600018D106F078412C20005DB1EBC06F11D18A
:1018700006F4C001208E0122C2EB5000B1EB405FA4
:1018800008D106F0C0613420005DC2EB5000B1EB1E
:10189000406F01D001205EE500205CE500100240B1
:1018A0000C809F01FCFFEEFE70B504460CB90120D0
:1018B00070BD606A38B96068B0F5827F00D105E01C
:1018C0000021E16102E00021216161610021A1624A
:1018D00094F85D0028B9002084F85C00204600F0F0
:1018E00061F8022084F85D002068006820F0400064
:1018F00021680860E068B0F5E06F01D9002501E0DB
:101900004FF48055E068B0F5706F05D0E068B0F531
:10191000E06F01D00021A162A08800F482702189CB
:1019200001F404410843217C01F002010843217DB8
:1019300001F001010843218B01F400710843217F6C
:1019400001F0380108432021095D01F080010843BE
:10195000218D01F400510843216808600421A06929
:1019600001EA104094F8241001F01001084394F8A3
:10197000341001F008010843A18901F470610843A3
:1019800005F480510843216848602068C06920F44C
:1019900000602168C86100202066012084F85D0095
:1019A000002085E710B586B00446142101A8FEF793
:1019B00083FC24492068884242D100BF2248806DC0
:1019C00040F40040204988650846806D00F40040DE
:1019D000009000BF00BF00BF0846C06C40F004008C
:1019E000C8640846C06C00F00400009000BF00BF4F
:1019F00000BF0846C06C40F00200C8640846C06CD6
:101A000000F00200009000BF00BF4FF44060019062
:101A1000022002900020039004900620059001A966
:101A20000A48FEF72BFF20200190022002900020A0
:101A3000039004900620059001A90548FEF71EFFBB
:101A400006B010BD003C00400010024000080048F5
:101A50000004004870B504462546681EB0F1807F3A
:101A600001D301200FE0681E4FF0E02148610F21F3
:101A70004FF0FF3000F076FC00204FF0E02188614D
:101A800007200861002070BD70477047704770479D
:101A90007047704730B502460B4600BF92F83C00D5
:101AA000012801D1022030BD012082F83C0000BF96
:101AB000022082F83D0010684168106884681D4D5E
:101AC0001068A84203D01C4D1068A84203D121F42D
:101AD00070015868014319480140186801431068B3
:101AE0004160144D1068A84213D01068B0F1804FC7
:101AF0000FD0134D1068A8420BD0124D1068A842A9
:101B000007D00D4D1068A84203D00F4D1068A842B1
:101B100005D124F080049868044310688460012093
:101B200082F83D0000BF002082F83C0000BF00BFEB
:101B3000B9E70000002C0140003401408FFFFFFD99
:101B4000000400400008004000400140704710B50C
:101B500004460CB9012010BD94F83D0028B90020BE
:101B600084F83C00204600F029F8022084F83D006B
:101B7000211D206800F046FB012084F8480000BFCA
:101B800084F83E0001213F200155402001554120AD
:101B90000155422001554320015500BF00BF0120DF
:101BA00084F8440045200155462001554720015541
:101BB00000BF012084F83D000020CCE738B5044682
:101BC0000D492068884215D100BF0C48006E40F4D2
:101BD00080300A4908660846006E00F480300090A4
:101BE00000BF00BF002211461820FEF7B1FF1820E9
:101BF000FEF79AFF38BD000000400140001002408F
:101C00002DE9F04104460D46002700BF94F83C0042
:101C1000012802D10220BDE8F081012084F83C00B7
:101C200000BF022084F83D00206886683F480640D7
:101C300026F47F46206886602868702824D00CDC53
:101C400000F00F01002964D10011072861D2DFE8FC
:101C500000F05354555649353F00354A811A904299
:101C60004FD009DCB0F5805F0DD0B0F5005F18D023
:101C7000B0F1101F4DD143E0102943D0202942D0AC
:101C8000502946D140E046E0D5E902136A68206851
:101C900000F01EFB2068866846F0770620688660A4
:101CA00039E0D5E902136A68206800F011FB20686A
:101CB000806840F48040216888602CE0EA686968A8
:101CC000206800F01DFB5021206800F00DFB22E091
:101CD000EA686968206800F026FB6021206800F04F
:101CE00003FB18E0EA686968206800F009FB4021FE
:101CF000206800F0F9FA0EE000BF00BF00BF00BF8F
:101D000000BF00BF00BF00BF2968206800F0ECFAE8
:101D100001E0012700BF00BF012084F83D0000BFA3
:101D2000002084F83C0000BF384674E788FFCEFFEF
:101D300020001000704770B504462068C66820680F
:101D4000056905F00200022819D106F002000228F8
:101D500015D1401F21680861012020772068806923
:101D600000F0030018B12046FFF7E4FF05E020462D
:101D700000F0F1F8204600F0EFF80020207705F0A1
:101D80000400042819D106F00400042815D1C0432A
:101D900021680861022020772068806900F4407083
:101DA00018B12046FFF7C6FF05E0204600F0D3F843
:101DB000204600F0D1F80020207705F00800082820
:101DC00019D106F00800082815D1C0432168086120
:101DD000042020772068C06900F0030018B1204675
:101DE000FFF7A8FF05E0204600F0B5F8204600F018
:101DF000B3F80020207705F01000102819D106F064
:101E00001000102815D1C0432168086108202077F0
:101E10002068C06900F4407018B12046FFF78AFFBF
:101E200005E0204600F097F8204600F095F80020E5
:101E3000207705F0010048B106F0010030B16FF0E5
:101E4000010021680861204600F087F805F0800055
:101E5000802804D005F40050B0F5005F0AD106F0E8
:101E60008000802806D16FF4025021680861204666
:101E7000FFF70BFE05F48070B0F5807F0AD106F005
:101E80008000802806D16FF48070216808612046A8
:101E9000FFF7FAFD05F04000402809D106F04000A8
:101EA000402805D1C04321680861204600F056F85B
:101EB00005F02000202809D106F02000202805D1B7
:101EC000C043216808612046FFF7E0FD05F480105B
:101ED000B0F5801F0BD106F48010B0F5801F06D13D
:101EE0006FF48010216808612046FFF7D1FD05F4EA
:101EF0000010B0F5001F0BD106F40010B0F5001F64
:101F000006D16FF40010216808612046FFF7BFFD7D
:101F100005F48000B0F5800F0BD106F48000B0F519
:101F2000800F06D16FF48000216808612046FFF71A
:101F3000B0FD05F40000B0F5000F0BD106F4000071
:101F4000B0F5000F06D16FF400002168086120464B
:101F5000FFF7FCFD70BD704770477047704700BFCA
:101F6000FEE7000010B514481449086000204860DE
:101F70004FF44071114881600021C160012101745A
:101F8000417481744161102181616E21C1613121EF
:101F9000016201214162102181621421C1620B2181
:101FA00001630121416381630021C163FEF702FBEC
:101FB00008B1FEF7E5F910BD0064004010000020F4
:101FC00008B500BF1A48C06C40F020001849C8642A
:101FD0000846C06C00F02000009000BF00BF00BFAA
:101FE0000846C06C40F00100C8640846C06C00F0B0
:101FF0000100009000BF00BF00BF0846C06C40F069
:102000000400C8640846C06C00F00400009000BFE3
:1020100000BF00BF0846C06C40F00200C86408461C
:10202000C06C00F00200009000BF00BF08BD0000BF
:102030000010024010B51148114908604FF4827039
:10204000486000210E4881604FF47061C16000213A
:10205000016101214161490281612021C1610021A9
:102060000162416281620721C16200210163416313
:10207000FFF71AFC08B1FEF783F910BD003C0040E1
:102080007400002000B587B00020039004900590F4
:1020900006900090019002901548164908609F2014
:1020A000486000211348816040F2E731C16000219F
:1020B0000161416180218161FFF749FD08B1FEF7AF
:1020C0005FF94FF48050039003A90A48FFF798FD89
:1020D00008B1FEF755F900200090029069460548C6
:1020E000FFF7D8FC08B1FEF74BF907B000BD0000C0
:1020F00000400140D800002000BFFEE700BFFEE71F
:102100007047000070B5164DED6805F00304144DDE
:10211000ED68C5F303156B1C022C0CD0032C09D100
:10212000104DB5FBF3F50E4EF668C6F3062605FB1B
:1021300006F10AE000BF0C4DB5FBF3F5084EF6685A
:10214000C6F3062605FB06F100BF00BF044DED688F
:10215000C5F341656D1C6A00B1FBF2F070BD000073
:102160000010024000127A000024F400704710B5FD
:10217000FEF770FC10BD00B593B0382105A8FEF73E
:102180009BF814216846FEF797F80020FEF732FD11
:10219000012005900004069002200C9003210D916F
:1021A00002210E9150210F91022110911191129153
:1021B00005A8FFF7CBF808B1FEF7E2F80F20009072
:1021C00003200190002002900390049004216846AF
:1021D000FEF75EFF08B1FEF7D3F813B000BD0000B4
:1021E0000348006840F4700001490860704700002F
:1021F00088ED00E010B50248FFF79DFD10BD00001E
:10220000D800002010B502682A4B98420BD0B0F1DC
:10221000804F08D0284B984205D0284B984202D0D6
:10222000274B984203D122F070024B681A43214B8E
:10223000984214D0B0F1804F11D01F4B98420ED06D
:102240001E4B98420BD01E4B984208D01D4B984213
:1022500005D01D4B984202D01C4B984203D122F46A
:102260004072CB681A4322F080034C6943EA0402AF
:1022700002608B68C3620B6883620E4B98420BD07E
:102280000F4B984208D00F4B984205D00E4B984206
:1022900002D00E4B984201D10B69036301234361C5
:1022A000036903F001031BB1036923F00103036118
:1022B00010BD0000002C0140000400400008004058
:1022C000003401400040014000440140004801400A
:1022D00030B50C46816821F47F4142EA032525434D
:1022E0002943816030BD00000A468168034B1940D4
:1022F00042F0070319438160704700008FFFCFFF52
:1023000030B50B461446026A056A25F001050562E0
:10231000816921F0F00141EA041122F00A021A4316
:102320008161026230BD30B50B461446026A056A0F
:1023300025F010050562816921F4704141EA0431FC
:1023400022F0A00242EA03128161026230BD00BFA6
:10235000FEE7000002480068C0F30220704700005A
:102360000CED00E010B5002804DB0A07130E054A47
:10237000135406E00A07140E034A00F00F031B1F54
:10238000D45410BD00E400E018ED00E0FEF76EFB51
:10239000FFF7F1FEFFF714FEFFF7E4FDFFF74AFE3B
:1023A000FFF770FE00BFFEE74FF04070E1EE100A4D
:1023B000704700000000000000000102030406074F
:1023C000080900000000010203040000EC230008DB
:1023D000000000201000000014020008FC23000888
:1023E0001000002078070000300200080000000004
:0C23F00010000000010000000024F400B8
:04000005080001D915
:00000001FF
